{
  "contractName": "ContributionAttestation",
  "abi": [
    {
      "inputs": [
        {
          "internalType": "address",
          "name": "initialOwner",
          "type": "address"
        }
      ],
      "stateMutability": "nonpayable",
      "type": "constructor"
    },
    {
      "inputs": [
        {
          "internalType": "address",
          "name": "owner",
          "type": "address"
        }
      ],
      "name": "OwnableInvalidOwner",
      "type": "error"
    },
    {
      "inputs": [
        {
          "internalType": "address",
          "name": "account",
          "type": "address"
        }
      ],
      "name": "OwnableUnauthorizedAccount",
      "type": "error"
    },
    {
      "anonymous": false,
      "inputs": [
        {
          "indexed": false,
          "internalType": "uint256",
          "name": "id",
          "type": "uint256"
        },
        {
          "indexed": false,
          "internalType": "string",
          "name": "repo",
          "type": "string"
        },
        {
          "indexed": false,
          "internalType": "string",
          "name": "commitHash",
          "type": "string"
        },
        {
          "indexed": false,
          "internalType": "string",
          "name": "author",
          "type": "string"
        },
        {
          "indexed": false,
          "internalType": "uint256",
          "name": "timestamp",
          "type": "uint256"
        }
      ],
      "name": "AttestationCreated",
      "type": "event"
    },
    {
      "anonymous": false,
      "inputs": [
        {
          "indexed": true,
          "internalType": "address",
          "name": "previousOwner",
          "type": "address"
        },
        {
          "indexed": true,
          "internalType": "address",
          "name": "newOwner",
          "type": "address"
        }
      ],
      "name": "OwnershipTransferred",
      "type": "event"
    },
    {
      "inputs": [
        {
          "internalType": "uint256",
          "name": "",
          "type": "uint256"
        }
      ],
      "name": "attestations",
      "outputs": [
        {
          "internalType": "uint256",
          "name": "id",
          "type": "uint256"
        },
        {
          "internalType": "string",
          "name": "repo",
          "type": "string"
        },
        {
          "internalType": "string",
          "name": "commitHash",
          "type": "string"
        },
        {
          "internalType": "string",
          "name": "author",
          "type": "string"
        },
        {
          "internalType": "uint256",
          "name": "timestamp",
          "type": "uint256"
        }
      ],
      "stateMutability": "view",
      "type": "function"
    },
    {
      "inputs": [],
      "name": "owner",
      "outputs": [
        {
          "internalType": "address",
          "name": "",
          "type": "address"
        }
      ],
      "stateMutability": "view",
      "type": "function"
    },
    {
      "inputs": [],
      "name": "renounceOwnership",
      "outputs": [],
      "stateMutability": "nonpayable",
      "type": "function"
    },
    {
      "inputs": [
        {
          "internalType": "address",
          "name": "newOwner",
          "type": "address"
        }
      ],
      "name": "transferOwnership",
      "outputs": [],
      "stateMutability": "nonpayable",
      "type": "function"
    },
    {
      "inputs": [
        {
          "internalType": "string",
          "name": "repo",
          "type": "string"
        },
        {
          "internalType": "string",
          "name": "commitHash",
          "type": "string"
        },
        {
          "internalType": "string",
          "name": "author",
          "type": "string"
        }
      ],
      "name": "createAttestation",
      "outputs": [],
      "stateMutability": "nonpayable",
      "type": "function"
    },
    {
      "inputs": [
        {
          "internalType": "uint256",
          "name": "id",
          "type": "uint256"
        }
      ],
      "name": "getAttestation",
      "outputs": [
        {
          "components": [
            {
              "internalType": "uint256",
              "name": "id",
              "type": "uint256"
            },
            {
              "internalType": "string",
              "name": "repo",
              "type": "string"
            },
            {
              "internalType": "string",
              "name": "commitHash",
              "type": "string"
            },
            {
              "internalType": "string",
              "name": "author",
              "type": "string"
            },
            {
              "internalType": "uint256",
              "name": "timestamp",
              "type": "uint256"
            }
          ],
          "internalType": "struct ContributionAttestation.Attestation",
          "name": "",
          "type": "tuple"
        }
      ],
      "stateMutability": "view",
      "type": "function"
    }
  ],
  "bytecode": "0x608060405234801562000010575f80fd5b5060405162001261380380620012618339818101604052810190620000369190620001e9565b805f73ffffffffffffffffffffffffffffffffffffffff168173ffffffffffffffffffffffffffffffffffffffff1603620000aa575f6040517f1e4fbdf7000000000000000000000000000000000000000000000000000000008152600401620000a191906200022a565b60405180910390fd5b620000bb81620000c360201b60201c565b505062000245565b5f805f9054906101000a900473ffffffffffffffffffffffffffffffffffffffff169050815f806101000a81548173ffffffffffffffffffffffffffffffffffffffff021916908373ffffffffffffffffffffffffffffffffffffffff1602179055508173ffffffffffffffffffffffffffffffffffffffff168173ffffffffffffffffffffffffffffffffffffffff167f8be0079c531659141344cd1fd0a4f28419497f9722a3daafe3b4186f6b6457e060405160405180910390a35050565b5f80fd5b5f73ffffffffffffffffffffffffffffffffffffffff82169050919050565b5f620001b38262000188565b9050919050565b620001c581620001a7565b8114620001d0575f80fd5b50565b5f81519050620001e381620001ba565b92915050565b5f6020828403121562000201576200020062000184565b5b5f6200021084828501620001d3565b91505092915050565b6200022481620001a7565b82525050565b5f6020820190506200023f5f83018462000219565b92915050565b61100e80620002535f395ff3fe608060405234801561000f575f80fd5b5060043610610060575f3560e01c806301daf26b1461006457806329be4db214610098578063715018a6146100c85780638da5cb5b146100d2578063aa2a4c26146100f0578063f2fde38b1461010c575b5f80fd5b61007e60048036038101906100799190610870565b610128565b60405161008f959493929190610934565b60405180910390f35b6100b260048036038101906100ad9190610870565b6102ec565b6040516100bf9190610a72565b60405180910390f35b6100d06104da565b005b6100da6104ed565b6040516100e79190610ad1565b60405180910390f35b61010a60048036038101906101059190610c16565b610514565b005b61012660048036038101906101219190610ce4565b61060c565b005b6002602052805f5260405f205f91509050805f01549080600101805461014d90610d3c565b80601f016020809104026020016040519081016040528092919081815260200182805461017990610d3c565b80156101c45780601f1061019b576101008083540402835291602001916101c4565b820191905f5260205f20905b8154815290600101906020018083116101a757829003601f168201915b5050505050908060020180546101d990610d3c565b80601f016020809104026020016040519081016040528092919081815260200182805461020590610d3c565b80156102505780601f1061022757610100808354040283529160200191610250565b820191905f5260205f20905b81548152906001019060200180831161023357829003601f168201915b50505050509080600301805461026590610d3c565b80601f016020809104026020016040519081016040528092919081815260200182805461029190610d3c565b80156102dc5780601f106102b3576101008083540402835291602001916102dc565b820191905f5260205f20905b8154815290600101906020018083116102bf57829003601f168201915b5050505050908060040154905085565b6102f46107ff565b60025f8381526020019081526020015f206040518060a00160405290815f820154815260200160018201805461032990610d3c565b80601f016020809104026020016040519081016040528092919081815260200182805461035590610d3c565b80156103a05780601f10610377576101008083540402835291602001916103a0565b820191905f5260205f20905b81548152906001019060200180831161038357829003601f168201915b505050505081526020016002820180546103b990610d3c565b80601f01602080910402602001604051908101604052809291908181526020018280546103e590610d3c565b80156104305780601f1061040757610100808354040283529160200191610430565b820191905f5260205f20905b81548152906001019060200180831161041357829003601f168201915b5050505050815260200160038201805461044990610d3c565b80601f016020809104026020016040519081016040528092919081815260200182805461047590610d3c565b80156104c05780601f10610497576101008083540402835291602001916104c0565b820191905f5260205f20905b8154815290600101906020018083116104a357829003601f168201915b505050505081526020016004820154815250509050919050565b6104e2610690565b6104eb5f610717565b565b5f805f9054906101000a900473ffffffffffffffffffffffffffffffffffffffff16905090565b61051c610690565b61052660016107d8565b5f61053160016107ec565b90505f6040518060a001604052808381526020018681526020018581526020018481526020014281525090508060025f8481526020019081526020015f205f820151815f0155602082015181600101908161058c9190610f09565b5060408201518160020190816105a29190610f09565b5060608201518160030190816105b89190610f09565b50608082015181600401559050507f4a81ae4b6c9fe46a5f956d2d553758fc90f2a44f9145aaeded49124efc4f7e5282868686426040516105fd959493929190610934565b60405180910390a15050505050565b610614610690565b5f73ffffffffffffffffffffffffffffffffffffffff168173ffffffffffffffffffffffffffffffffffffffff1603610684575f6040517f1e4fbdf700000000000000000000000000000000000000000000000000000000815260040161067b9190610ad1565b60405180910390fd5b61068d81610717565b50565b6106986107f8565b73ffffffffffffffffffffffffffffffffffffffff166106b66104ed565b73ffffffffffffffffffffffffffffffffffffffff1614610715576106d96107f8565b6040517f118cdaa700000000000000000000000000000000000000000000000000000000815260040161070c9190610ad1565b60405180910390fd5b565b5f805f9054906101000a900473ffffffffffffffffffffffffffffffffffffffff169050815f806101000a81548173ffffffffffffffffffffffffffffffffffffffff021916908373ffffffffffffffffffffffffffffffffffffffff1602179055508173ffffffffffffffffffffffffffffffffffffffff168173ffffffffffffffffffffffffffffffffffffffff167f8be0079c531659141344cd1fd0a4f28419497f9722a3daafe3b4186f6b6457e060405160405180910390a35050565b6001815f015f828254019250508190555050565b5f815f01549050919050565b5f33905090565b6040518060a001604052805f81526020016060815260200160608152602001606081526020015f81525090565b5f604051905090565b5f80fd5b5f80fd5b5f819050919050565b61084f8161083d565b8114610859575f80fd5b50565b5f8135905061086a81610846565b92915050565b5f6020828403121561088557610884610835565b5b5f6108928482850161085c565b91505092915050565b6108a48161083d565b82525050565b5f81519050919050565b5f82825260208201905092915050565b5f5b838110156108e15780820151818401526020810190506108c6565b5f8484015250505050565b5f601f19601f8301169050919050565b5f610906826108aa565b61091081856108b4565b93506109208185602086016108c4565b610929816108ec565b840191505092915050565b5f60a0820190506109475f83018861089b565b818103602083015261095981876108fc565b9050818103604083015261096d81866108fc565b9050818103606083015261098181856108fc565b9050610990608083018461089b565b9695505050505050565b6109a38161083d565b82525050565b5f82825260208201905092915050565b5f6109c3826108aa565b6109cd81856109a9565b93506109dd8185602086016108c4565b6109e6816108ec565b840191505092915050565b5f60a083015f830151610a065f86018261099a565b5060208301518482036020860152610a1e82826109b9565b91505060408301518482036040860152610a3882826109b9565b91505060608301518482036060860152610a5282826109b9565b9150506080830151610a67608086018261099a565b508091505092915050565b5f6020820190508181035f830152610a8a81846109f1565b905092915050565b5f73ffffffffffffffffffffffffffffffffffffffff82169050919050565b5f610abb82610a92565b9050919050565b610acb81610ab1565b82525050565b5f602082019050610ae45f830184610ac2565b92915050565b5f80fd5b5f80fd5b7f4e487b71000000000000000000000000000000000000000000000000000000005f52604160045260245ffd5b610b28826108ec565b810181811067ffffffffffffffff82111715610b4757610b46610af2565b5b80604052505050565b5f610b5961082c565b9050610b658282610b1f565b919050565b5f67ffffffffffffffff821115610b8457610b83610af2565b5b610b8d826108ec565b9050602081019050919050565b828183375f83830152505050565b5f610bba610bb584610b6a565b610b50565b905082815260208101848484011115610bd657610bd5610aee565b5b610be1848285610b9a565b509392505050565b5f82601f830112610bfd57610bfc610aea565b5b8135610c0d848260208601610ba8565b91505092915050565b5f805f60608486031215610c2d57610c2c610835565b5b5f84013567ffffffffffffffff811115610c4a57610c49610839565b5b610c5686828701610be9565b935050602084013567ffffffffffffffff811115610c7757610c76610839565b5b610c8386828701610be9565b925050604084013567ffffffffffffffff811115610ca457610ca3610839565b5b610cb086828701610be9565b9150509250925092565b610cc381610ab1565b8114610ccd575f80fd5b50565b5f81359050610cde81610cba565b92915050565b5f60208284031215610cf957610cf8610835565b5b5f610d0684828501610cd0565b91505092915050565b7f4e487b71000000000000000000000000000000000000000000000000000000005f52602260045260245ffd5b5f6002820490506001821680610d5357607f821691505b602082108103610d6657610d65610d0f565b5b50919050565b5f819050815f5260205f209050919050565b5f6020601f8301049050919050565b5f82821b905092915050565b5f60088302610dc87fffffffffffffffffffffffffffffffffffffffffffffffffffffffffffffffff82610d8d565b610dd28683610d8d565b95508019841693508086168417925050509392505050565b5f819050919050565b5f610e0d610e08610e038461083d565b610dea565b61083d565b9050919050565b5f819050919050565b610e2683610df3565b610e3a610e3282610e14565b848454610d99565b825550505050565b5f90565b610e4e610e42565b610e59818484610e1d565b505050565b5b81811015610e7c57610e715f82610e46565b600181019050610e5f565b5050565b601f821115610ec157610e9281610d6c565b610e9b84610d7e565b81016020851015610eaa578190505b610ebe610eb685610d7e565b830182610e5e565b50505b505050565b5f82821c905092915050565b5f610ee15f1984600802610ec6565b1980831691505092915050565b5f610ef98383610ed2565b9150826002028217905092915050565b610f12826108aa565b67ffffffffffffffff811115610f2b57610f2a610af2565b5b610f358254610d3c565b610f40828285610e80565b5f60209050601f831160018114610f71575f8415610f5f578287015190505b610f698582610eee565b865550610fd0565b601f198416610f7f86610d6c565b5f5b82811015610fa657848901518255600182019150602085019450602081019050610f81565b86831015610fc35784890151610fbf601f891682610ed2565b8355505b6001600288020188555050505b50505050505056fea26469706673582212203cb81da12631ade8a47de10a545ce0dd14ae0515aa69151b330f505c486a3a4d64736f6c63430008150033",
  "immutableReferences": {},
  "source": "// SPDX-License-Identifier: MIT\npragma solidity ^0.8.0;\n\nimport \"@openzeppelin/contracts/access/Ownable.sol\";\nimport \"@openzeppelin/contracts/utils/Counters.sol\";\n\ncontract ContributionAttestation is Ownable {\n    using Counters for Counters.Counter;\n    Counters.Counter private _attestationIds;\n\n    struct Attestation {\n        uint256 id;\n        string repo;\n        string commitHash;\n        string author;\n        uint256 timestamp;\n    }\n\n    mapping(uint256 => Attestation) public attestations;\n\n    event AttestationCreated(uint256 id, string repo, string commitHash, string author, uint256 timestamp);\n\n    constructor(address initialOwner) Ownable(initialOwner) {}\n\n    function createAttestation(string memory repo, string memory commitHash, string memory author) public onlyOwner {\n        _attestationIds.increment();\n        uint256 newId = _attestationIds.current();\n\n        Attestation memory newAttestation = Attestation({\n            id: newId,\n            repo: repo,\n            commitHash: commitHash,\n            author: author,\n            timestamp: block.timestamp\n        });\n\n        attestations[newId] = newAttestation;\n\n        emit AttestationCreated(newId, repo, commitHash, author, block.timestamp);\n    }\n\n    function getAttestation(uint256 id) public view returns (Attestation memory) {\n        return attestations[id];\n    }\n}\n",
  "sourcePath": "/Users/quadfund/contributr/contracts/attestation.sol",
  "compiler": {
    "name": "solc",
    "version": "0.8.21+commit.d9974bed.Emscripten.clang"
  },
  "schemaVersion": "3.4.16",
  "updatedAt": "2024-05-24T21:05:47.443Z",
  "devdoc": {
    "errors": {
      "OwnableInvalidOwner(address)": [
        {
          "details": "The owner is not a valid owner account. (eg. `address(0)`)"
        }
      ],
      "OwnableUnauthorizedAccount(address)": [
        {
          "details": "The caller account is not authorized to perform an operation."
        }
      ]
    },
    "kind": "dev",
    "methods": {
      "owner()": {
        "details": "Returns the address of the current owner."
      },
      "renounceOwnership()": {
        "details": "Leaves the contract without owner. It will not be possible to call `onlyOwner` functions. Can only be called by the current owner. NOTE: Renouncing ownership will leave the contract without an owner, thereby disabling any functionality that is only available to the owner."
      },
      "transferOwnership(address)": {
        "details": "Transfers ownership of the contract to a new account (`newOwner`). Can only be called by the current owner."
      }
    },
    "version": 1
  },
  "userdoc": {
    "kind": "user",
    "methods": {},
    "version": 1
  }
}